:02000000802E50
:1000300012003E12004212005212005380FE1200C3
:10004000C52278007900120057120065B820F780A9
:10005000F1222290010F229000CFC282120073126F
:100060000073D282229000EFC286120082120082B8
:10007000D28622E8937F08C281339280D281DFF753
:100080000822E9937F08C285339283D285DFF7097E
:1000900022C030C0317530C3753185D531FDD530C2
:1000A000FAD031D03022C030C031C032753008753E
:1000B000319A753273D532FDD531FAD530F7D03259
:1000C000D031D03022C287C28422D287D28422FF8C
:1000D000FEFFFDFFFBFFF7FFEFFFDFFFBFFF7FFE30
:1000E000FFFDFFFBFFF7FFEFFFDFFFBFFF7FFF0815
:1000F0000808880FF80FF80990034006500C581BA9
:0F0100004819D80C740664034001000000000089
:00000001FF
