:1000FE0020222A003F0006005B004F0066006D00C4
:10010E007D0007007F006F0077007C0039005E00E5
:10011E00790071000020220800C000F900A400B090
:10012E0000990092008200F8008000900088008301
:10013E0000C600A10086008E0000104D00010002D6
:10014E00000400080010002000400080014C000256
:03015E005D000041
:0C018600755F027560EFD560FDD55FFA73
:0A019200EF1F70011E144E70EB22E7
:10019C00E54C7006209003754C01E54C640170052C
:0601AC00309002F54C2228
:04008F00AD07AC0607
:10009300E4FBFAF563F564ECC4F854F0C868F56161
:0F00A300EDC4540F48F562755F00ED540FF56022
:1000B200EB25E0245FF8E6F56508E6F56625E02421
:1000C2002AF8E6F56708E6F568E4F563F564C29494
:1000D200E568339295E56825E0F568E56733F567ED
:1000E200D2940564E564700205636408456370DEBA
:0B00F2000BBB00010AEB64024A70B572
:0100FD0022E0
:10016200AF5EAE5D12008F12019CE54C60F2055E3F
:10017200E55E7002055D755D00F55E7FF47E01123D
:04018200018680DC96
:03000000020003F8
:0C000300787FE4F6D8FD75816802004AA1
:10000F00020162E493A3F8E493A34003F68001F2A4
:10001F0008DFF48029E493A3F85407240CC8C333F2
:10002F00C4540F4420C8834004F456800146F6DFC1
:10003F00E4800B01020408102040809000FEE47E53
:10004F00019360BCA3FF543F30E509541FFEE493B6
:10005F00A360010ECF54C025E060A840B8E493A37D
:10006F00FAE493A3F8E493A3C8C582C8CAC583CAA8
:10007F00F0A3C8C582C8CAC583CADFE9DEE780BE60
:01016100009D
:00000001FF
